{
  "_format": "hh-sol-artifact-1",
  "contractName": "AnonymousVoting",
  "sourceName": "contracts/AnonymousVoting.sol",
  "abi": [
    {
      "inputs": [
        {
          "internalType": "address",
          "name": "_verifier",
          "type": "address"
        }
      ],
      "stateMutability": "nonpayable",
      "type": "constructor"
    },
    {
      "anonymous": false,
      "inputs": [
        {
          "indexed": true,
          "internalType": "uint256",
          "name": "nullifierHash",
          "type": "uint256"
        },
        {
          "indexed": true,
          "internalType": "uint256",
          "name": "voteHash",
          "type": "uint256"
        }
      ],
      "name": "VoteCast",
      "type": "event"
    },
    {
      "inputs": [
        {
          "internalType": "uint256[2]",
          "name": "_pA",
          "type": "uint256[2]"
        },
        {
          "internalType": "uint256[2][2]",
          "name": "_pB",
          "type": "uint256[2][2]"
        },
        {
          "internalType": "uint256[2]",
          "name": "_pC",
          "type": "uint256[2]"
        },
        {
          "internalType": "uint256[2]",
          "name": "_pubSignals",
          "type": "uint256[2]"
        }
      ],
      "name": "castVote",
      "outputs": [],
      "stateMutability": "nonpayable",
      "type": "function"
    },
    {
      "inputs": [],
      "name": "getVoteResults",
      "outputs": [
        {
          "internalType": "uint256",
          "name": "",
          "type": "uint256"
        },
        {
          "internalType": "uint256",
          "name": "",
          "type": "uint256"
        }
      ],
      "stateMutability": "view",
      "type": "function"
    },
    {
      "inputs": [],
      "name": "noVotes",
      "outputs": [
        {
          "internalType": "uint256",
          "name": "",
          "type": "uint256"
        }
      ],
      "stateMutability": "view",
      "type": "function"
    },
    {
      "inputs": [
        {
          "internalType": "uint256",
          "name": "",
          "type": "uint256"
        }
      ],
      "name": "nullifierHashes",
      "outputs": [
        {
          "internalType": "bool",
          "name": "",
          "type": "bool"
        }
      ],
      "stateMutability": "view",
      "type": "function"
    },
    {
      "inputs": [
        {
          "internalType": "uint256[]",
          "name": "_yesVotes",
          "type": "uint256[]"
        },
        {
          "internalType": "uint256[]",
          "name": "_noVotes",
          "type": "uint256[]"
        }
      ],
      "name": "tallyVotes",
      "outputs": [],
      "stateMutability": "nonpayable",
      "type": "function"
    },
    {
      "inputs": [],
      "name": "verifier",
      "outputs": [
        {
          "internalType": "contract Groth16Verifier",
          "name": "",
          "type": "address"
        }
      ],
      "stateMutability": "view",
      "type": "function"
    },
    {
      "inputs": [
        {
          "internalType": "uint256",
          "name": "",
          "type": "uint256"
        }
      ],
      "name": "votes",
      "outputs": [
        {
          "internalType": "bool",
          "name": "",
          "type": "bool"
        }
      ],
      "stateMutability": "view",
      "type": "function"
    },
    {
      "inputs": [],
      "name": "yesVotes",
      "outputs": [
        {
          "internalType": "uint256",
          "name": "",
          "type": "uint256"
        }
      ],
      "stateMutability": "view",
      "type": "function"
    }
  ],
  "bytecode": "0x608060405234801561001057600080fd5b506040516200100638038062001006833981810160405281019061003491906100dd565b806000806101000a81548173ffffffffffffffffffffffffffffffffffffffff021916908373ffffffffffffffffffffffffffffffffffffffff1602179055505061010a565b600080fd5b600073ffffffffffffffffffffffffffffffffffffffff82169050919050565b60006100aa8261007f565b9050919050565b6100ba8161009f565b81146100c557600080fd5b50565b6000815190506100d7816100b1565b92915050565b6000602082840312156100f3576100f261007a565b5b6000610101848285016100c8565b91505092915050565b610eec806200011a6000396000f3fe608060405234801561001057600080fd5b50600436106100885760003560e01c806377d6106a1161005b57806377d6106a1461012757806386a66dc314610143578063b5b47f4214610162578063fb286c651461018057610088565b80631f79a1e91461008d5780632b7ac3f3146100bd5780633e2fcd56146100db5780635df81330146100f7575b600080fd5b6100a760048036038101906100a291906105f2565b61019e565b6040516100b4919061063a565b60405180910390f35b6100c56101be565b6040516100d291906106d4565b60405180910390f35b6100f560048036038101906100f09190610848565b6101e2565b005b610111600480360381019061010c91906105f2565b610364565b60405161011e919061063a565b60405180910390f35b610141600480360381019061013c9190610a22565b610384565b005b61014b61058b565b604051610159929190610a9a565b60405180910390f35b61016a61059c565b6040516101779190610ac3565b60405180910390f35b6101886105a2565b6040516101959190610ac3565b60405180910390f35b60016020528060005260406000206000915054906101000a900460ff1681565b60008054906101000a900473ffffffffffffffffffffffffffffffffffffffff1681565b60005b82518110156102a0576002600084838151811061020557610204610ade565b5b6020026020010151815260200190815260200160002060009054906101000a900460ff161561028d576003600081548092919061024190610b3c565b919050555060006002600085848151811061025f5761025e610ade565b5b6020026020010151815260200190815260200160002060006101000a81548160ff0219169083151502179055505b808061029890610b3c565b9150506101e5565b5060005b815181101561035f57600260008383815181106102c4576102c3610ade565b5b6020026020010151815260200190815260200160002060009054906101000a900460ff161561034c576004600081548092919061030090610b3c565b919050555060006002600084848151811061031e5761031d610ade565b5b6020026020010151815260200190815260200160002060006101000a81548160ff0219169083151502179055505b808061035790610b3c565b9150506102a4565b505050565b60026020528060005260406000206000915054906101000a900460ff1681565b60008054906101000a900473ffffffffffffffffffffffffffffffffffffffff1673ffffffffffffffffffffffffffffffffffffffff1663f5c9d69e858585856040518563ffffffff1660e01b81526004016103e39493929190610d2d565b602060405180830381865afa158015610400573d6000803e3d6000fd5b505050506040513d601f19601f820116820180604052508101906104249190610da0565b610463576040517f08c379a000000000000000000000000000000000000000000000000000000000815260040161045a90610e2a565b60405180910390fd5b60008160006002811061047957610478610ade565b5b6020020151905060008260016002811061049657610495610ade565b5b602002015190506001600083815260200190815260200160002060009054906101000a900460ff16156104fe576040517f08c379a00000000000000000000000000000000000000000000000000000000081526004016104f590610e96565b60405180910390fd5b600180600084815260200190815260200160002060006101000a81548160ff02191690831515021790555060016002600083815260200190815260200160002060006101000a81548160ff02191690831515021790555080827fc31875ef3ed5138b71a0c1da7e494bc4d2ba4f567084ea481ec9c45f3a93948b60405160405180910390a3505050505050565b600080600354600454915091509091565b60045481565b60035481565b6000604051905090565b600080fd5b600080fd5b6000819050919050565b6105cf816105bc565b81146105da57600080fd5b50565b6000813590506105ec816105c6565b92915050565b600060208284031215610608576106076105b2565b5b6000610616848285016105dd565b91505092915050565b60008115159050919050565b6106348161061f565b82525050565b600060208201905061064f600083018461062b565b92915050565b600073ffffffffffffffffffffffffffffffffffffffff82169050919050565b6000819050919050565b600061069a61069561069084610655565b610675565b610655565b9050919050565b60006106ac8261067f565b9050919050565b60006106be826106a1565b9050919050565b6106ce816106b3565b82525050565b60006020820190506106e960008301846106c5565b92915050565b600080fd5b6000601f19601f8301169050919050565b7f4e487b7100000000000000000000000000000000000000000000000000000000600052604160045260246000fd5b61073d826106f4565b810181811067ffffffffffffffff8211171561075c5761075b610705565b5b80604052505050565b600061076f6105a8565b905061077b8282610734565b919050565b600067ffffffffffffffff82111561079b5761079a610705565b5b602082029050602081019050919050565b600080fd5b60006107c46107bf84610780565b610765565b905080838252602082019050602084028301858111156107e7576107e66107ac565b5b835b8181101561081057806107fc88826105dd565b8452602084019350506020810190506107e9565b5050509392505050565b600082601f83011261082f5761082e6106ef565b5b813561083f8482602086016107b1565b91505092915050565b6000806040838503121561085f5761085e6105b2565b5b600083013567ffffffffffffffff81111561087d5761087c6105b7565b5b6108898582860161081a565b925050602083013567ffffffffffffffff8111156108aa576108a96105b7565b5b6108b68582860161081a565b9150509250929050565b600067ffffffffffffffff8211156108db576108da610705565b5b602082029050919050565b60006108f96108f4846108c0565b610765565b90508060208402830185811115610913576109126107ac565b5b835b8181101561093c578061092888826105dd565b845260208401935050602081019050610915565b5050509392505050565b600082601f83011261095b5761095a6106ef565b5b60026109688482856108e6565b91505092915050565b600067ffffffffffffffff82111561098c5761098b610705565b5b602082029050919050565b60006109aa6109a584610971565b610765565b905080604084028301858111156109c4576109c36107ac565b5b835b818110156109ed57806109d98882610946565b8452602084019350506040810190506109c6565b5050509392505050565b600082601f830112610a0c57610a0b6106ef565b5b6002610a19848285610997565b91505092915050565b6000806000806101408587031215610a3d57610a3c6105b2565b5b6000610a4b87828801610946565b9450506040610a5c878288016109f7565b93505060c0610a6d87828801610946565b925050610100610a7f87828801610946565b91505092959194509250565b610a94816105bc565b82525050565b6000604082019050610aaf6000830185610a8b565b610abc6020830184610a8b565b9392505050565b6000602082019050610ad86000830184610a8b565b92915050565b7f4e487b7100000000000000000000000000000000000000000000000000000000600052603260045260246000fd5b7f4e487b7100000000000000000000000000000000000000000000000000000000600052601160045260246000fd5b6000610b47826105bc565b91507fffffffffffffffffffffffffffffffffffffffffffffffffffffffffffffffff8203610b7957610b78610b0d565b5b600182019050919050565b600060029050919050565b600081905092915050565b6000819050919050565b610bad816105bc565b82525050565b6000610bbf8383610ba4565b60208301905092915050565b6000602082019050919050565b610be181610b84565b610beb8184610b8f565b9250610bf682610b9a565b8060005b83811015610c27578151610c0e8782610bb3565b9650610c1983610bcb565b925050600181019050610bfa565b505050505050565b600060029050919050565b600081905092915050565b6000819050919050565b600081905092915050565b610c6381610b84565b610c6d8184610c4f565b9250610c7882610b9a565b8060005b83811015610ca9578151610c908782610bb3565b9650610c9b83610bcb565b925050600181019050610c7c565b505050505050565b6000610cbd8383610c5a565b60408301905092915050565b6000602082019050919050565b610cdf81610c2f565b610ce98184610c3a565b9250610cf482610c45565b8060005b83811015610d25578151610d0c8782610cb1565b9650610d1783610cc9565b925050600181019050610cf8565b505050505050565b600061014082019050610d436000830187610bd8565b610d506040830186610cd6565b610d5d60c0830185610bd8565b610d6b610100830184610bd8565b95945050505050565b610d7d8161061f565b8114610d8857600080fd5b50565b600081519050610d9a81610d74565b92915050565b600060208284031215610db657610db56105b2565b5b6000610dc484828501610d8b565b91505092915050565b600082825260208201905092915050565b7f496e76616c6964207a65726f2d6b6e6f776c656467652070726f6f6600000000600082015250565b6000610e14601c83610dcd565b9150610e1f82610dde565b602082019050919050565b60006020820190508181036000830152610e4381610e07565b9050919050565b7f566f746520616c72656164792063617374000000000000000000000000000000600082015250565b6000610e80601183610dcd565b9150610e8b82610e4a565b602082019050919050565b60006020820190508181036000830152610eaf81610e73565b905091905056fea2646970667358221220334ad9791449865683b46f788f603fc477a0c46fb66e9106099166677c0bbf1664736f6c63430008110033",
  "linkReferences": {},
  "deployedLinkReferences": {}
}